:1000000010C01FC01EC01DC01CC01BC01AC019C01C
:1000100018C017C016C015C014C013C012C011C03C
:1000200010C011241FBECFE5D1E0DEBFCDBF10E070
:10003000A0E6B0E001C01D92A236B107E1F752D0B0
:1000400054C0DECF109261001092600020E030E0DA
:10005000AC0102C0559547952A95E2F740FF03C0D1
:10006000D89A2BB302C0D8982BB3EFECF7E03197B6
:10007000F1F700C00000D99AEFECF7E03197F1F703
:1000800000C00000D99820916000309161002F5F7E
:100090003F4F309361002093600028303105C4F257
:1000A0000895D19AD29AD09AD39ADB98DA988FECA5
:1000B00097E00197F1F700C00000DA9A8FEC97E023
:1000C0000197F1F700C0000080EF90E0BBDF0895DA
:1000D0008FEF91EEA4E081509040A040E1F700C086
:0E00E00000000895DEDFF4DFFECFF894FFCFBE
:00000001FF
