:1000000010C01FC01EC01DC01CC01BC01AC019C01C
:1000100018C017C016C015C014C013C012C011C03C
:1000200010C011241FBECFE5D1E0DEBFCDBF10E070
:10003000A0E6B0E001C01D92A236B107E1F762D0A0
:1000400064C0DECFD19AD29AD09AD39ADB98DA984C
:100050008FEC97E00197F1F700C00000DA9A8FEC7F
:1000600097E00197F1F700C00000D89884E090E095
:100070009093610080936000D99A8FEC97E001978C
:10008000F1F700C00000D9988FEC97E00197F1F7E5
:1000900000C00000809160009091610001979093F2
:1000A0006100809360001816190634F3D89A84E032
:1000B00090E09093610080936000D99A8FEC97E074
:1000C0000197F1F700C00000D9988FEC97E00197F5
:1000D000F1F700C0000080916000909161000197ED
:1000E00090936100809360001816190634F3089508
:1000F0002FEF81EE94E0215080409040E1F700C066
:0E010000000008959FDFF4DFFECFF894FFCFDC
:00000001FF
